:020000040800F2
:10000000086500208D28000895280008972800081A
:10001000992800089B2800089D280008000000007F
:100020000000000000000000000000009F28000801
:10003000A128000800000000A3280008D70B000832
:10004000A7280008A7280008A7280008A728000854
:10005000A7280008A7280008A7280008A728000844
:10006000A7280008A7280008A7280008A728000834
:10007000A7280008A7280008A7280008A728000824
:10008000A7280008A7280008A7280008A728000814
:10009000A7280008A7280008A7280008A728000804
:1000A000A7280008F90B0008A7280008A7280008BF
:1000B000350C0008A7280008A7280008A728000872
:1000C000A7280008A7280008A7280008A7280008D4
:1000D000A7280008A7280008F9090008D709000880
:1000E000A7280008A7280008A7280008A7280008B4
:1000F000A7280008A7280008A7280008A7280008A4
:10010000A7280008A7280008A7280008A728000893
:10011000A7280008A7280008A7280008A728000883
:10012000A7280008A7280008A7280008A728000873
:10013000A7280008A7280008A7280008A728000863
:10014000A7280008A7280008A7280008A728000853
:10015000A7280008A7280008A7280008A728000843
:10016000A7280008A7280008A7280008A728000833
:10017000A7280008A7280008A7280008A728000823
:10018000A7280008A7280008DFF810D006F0ECFE2A
:1001900006F042FC00480047E7010008086500201F
:1001A00070B504460D4600BF4021064802F006FA2D
:1001B0000028F9D0E1B2034802F050F9204670BDA2
:1001C0007047000000440040002106E047F2305133
:1001D00000BF0A1EA1F10101FBD1021EA0F1010323
:1001E00098B2F3D1704700F059FD1E20FFF7ECFFE5
:1001F00020A007F0ABF94FF47A70FFF7E5FF00227B
:1002000011462148006802F0C3FC1420FFF7DCFF10
:100210001EA007F09BF90BE01F480068012804D1DD
:1002200000201D49086000F01BF93220FFF7CCFFC9
:10023000F2E738B5042007F075F904461749016064
:1002400000BF1749016017480460002003460246BA
:10025000009014480168144802F060FB0A480168E5
:10026000124804F08DFB08480168114805F0AEFE05
:1002700038BD0000496E697469616C697A696E679E
:100280002E2E2E0D0A00000004000020446F6E6523
:100290007E210D0A00000000DC000020A88200087A
:1002A00078820008000000200009002008000020DB
:1002B000981B002000B595B020220C490DA806F02F
:1002C000ADFA0B480190022002900A4803900DA954
:1002D00004A806F0D5FA08480C9000231A4601A994
:1002E0000648006802F0A5FD15B000BDC07E0008FC
:1002F000619F0F00000A030250000020040000204C
:1003000010B500220121114805F069FE4022104974
:10031000104806F083FA10BD10B5002201210B48E9
:1003200005F05DFE4FF480600A490860486088600F
:10033000C860086148618861C86108624862886273
:10034000C862086348638863C86310BD981B0020B7
:10035000910000201000002000B5C3B09FED2B0BD2
:1003600051EC100B2B4A106151612B480168684613
:1003700003F0FFF97822694625A806F04FFA192202
:100380000DF1CF011EA806F049FA2248DDE91E1240
:100390000160426020480168684603F0EAF978226B
:1003A000694625A806F03AFA19220DF1CF011EA8D8
:1003B00006F034FA1748DDE920128160C260182285
:1003C00001463DA806F02AFA9DED412B9DED3F1B0D
:1003D0009DED3D0B114806F063F8B2EE0E0A0F4892
:1003E00006F07EF89FED0E0B0C4806F070F8002228
:1003F00011460A4805F02EFF43B000BD10B506486F
:100400000168064805F0B0FE10BD000000000000C5
:1004100000004940141C002004000020DC1B0020C8
:100420000000000000003E4000F0800262B100F0D9
:100430007F0241EA02225242642392FBF3F200EE71
:10044000102AB8EEC00A704700F07F0241EA02228B
:10045000642392FBF3F200EE102AB8EEC00AF2E732
:1004600030B52DED028B9FB00025D3480078FA28D7
:1004700003D01FB0BDEC028B30BDCF484078FB28C5
:100480007DD1CD48807828B900221146CB4800683C
:1004900002F07EFBC8488078012801D1FFF70AFFEF
:1004A000C5488078022814D1C348C07830B90023E9
:1004B0001A461946C148006802F025FFBE48C078B8
:1004C000012806D100231A460121BC48006802F029
:1004D0001AFFB9488078032812D1B748C07828B9E4
:1004E00000231A461946B64804F0F7FAB248C07815
:1004F000012805D100231A460121B14804F0EDFA84
:10050000AD48807804287AD1AB48C07801287BD1E7
:10051000A9480079AB490870A74A91795079FFF74B
:1005200083FF10EE100AA749C1F80100A24A117A10
:10053000D079FFF779FF10EE100AA249C1F8050043
:100540009D4A917A507AFFF76FFF10EE100A9D498D
:10055000C1F80900984A117BD07AFFF765FF10EEC9
:10056000100A9849C1F80D00954804F0D6FA012107
:10057000880701F03DF9904A9179507900E014E143
:10058000FFF752FF10EE104A204606F055FA41ECF4
:10059000180B53EC182B8CA006F0D8FF864A117A62
:1005A000D079FFF741FF10EE104A204606F044FADA
:1005B00041EC180B53EC182B87A006F0C7FF7E4ABE
:1005C000917A507AFFF730FF10EE104A204606F07D
:1005D00033FA41EC180B53EC182B83A006F0B6FF4E
:1005E000754A117BD07AFFF71FFF10EE104A2046A4
:1005F00006F022FA41EC180B53EC182B01E070E0E6
:1006000002E07CA006F0A2FF6B48C078E8B9912018
:100610006C490870B2EE040A10EE100AC1F801002D
:10062000B2EE040A10EE100AC1F80500B3EE040A97
:1006300010EE100AC1F809009FED710A10EE100AC1
:10064000C1F80D005E4804F068FA5B48C0780228E3
:1006500047D1594A91795079FFF7E6FE10EE104ADA
:10066000204606F0E9F941EC180B53EC182B56A084
:1006700006F06CFF504A117AD079FFF7D5FE10EEE4
:10068000104A204606F0D8F941EC180B53EC182B11
:1006900051A006F05BFF484A917A507AFFF7C4FEFA
:1006A00010EE104A204606F0C7F941EC180B53EC47
:1006B000182B4DA006F04AFF3F4A117BD07AFFF776
:1006C000B3FE10EE104A204606F0B6F941EC180BC6
:1006D00053EC182B47A006F039FF0121880701F0E1
:1006E00087F83548807805281DD13348C07801281F
:1006F00005D100231A460121314804F088F92E481B
:10070000C078022805D100231A4604212C4804F0A1
:100710007EF92948C078032805D100231A4606210E
:10072000274804F074F92448807806281CD1224810
:10073000C07828B9FFF7F0FD0021324801F058F8E1
:100740001D48C078022805D1FFF7DAFD01212D48A8
:1007500001F04EF81848C078012805D1FFF7DCFDFC
:100760000121284801F044F813488078072801D176
:10077000FFF7F2FD1048807808281BD10F48016868
:1007800001A802F0F6FF762201A91F4806F046F8FC
:100790001D48D0F802101DA006F0D8FE1A4890F8A7
:1007A00073101FA006F0D2FE04E003484078FC2836
:1007B00000D05EE600BF5CE65F1C00200400002065
:1007C00008000020841B0020726F6C6C5F6F725FEA
:1007D00078203D25660A000070697463685F6F7257
:1007E0005F79203D25660A007468725F7A203D2596
:1007F000660A0000796177203D25660A0A0000003C
:100800000000C84200000140911C002054696D6541
:100810005374616D702069732025640D0A00000017
:10082000426174746572792063617061636974797F
:100830002072656D61696E73202564207065726336
:10084000656E740D0A0000001CB50121084600F019
:100850005AFD0C20009002208DF804008DF8050050
:1008600000208DF8060001208DF8070069468048B9
:1008700000F0FCFA072202217D4800F082FB0722EB
:1008800003217B4800F07DFB1CBD1CB5012102202B
:1008900000F039FD4FF44060009002208DF8040014
:1008A0008DF8050000208DF8060001208DF8070066
:1008B0006946704800F0DAFA07220A216D4800F014
:1008C00060FB07220B216B4800F05BFB1CBD1FB5D2
:1008D000FFF7BAFF0121480400F048FD4FF4E13072
:1008E00000900020ADF80400ADF80600ADF8080057
:1008F000ADF80C000C20ADF80A0069465E4801F026
:10090000FAFC012240F225515B4801F032FE012140
:10091000594801F078FD00BF8021574801F04EFE94
:100920000128F9D11FBD1FB5FFF7AFFF01218804D2
:1009300000F01CFD4FF4613000900020ADF8040081
:10094000ADF80600ADF80800ADF80C000C20ADF8CD
:100950000A006946494801F0CEFC012240F22551C7
:10096000464801F006FE0121444801F04CFD00BF5D
:100970008021424801F022FE0128F9D11FBD1CB59B
:100980004FF4A06000F094F904208DF805000320D6
:100990008DF8060027208DF8040001208DF807004F
:1009A00001A800F08AF903208DF8010002208DF8DB
:1009B000020026208DF8000001208DF80300684613
:1009C00000F07BF91CBD10B5FFF781FFFFF7ABFF0F
:1009D000FFF7D5FF10BD10B52021284801F0EEFD2E
:1009E000012808D1254801F03DFDC4B22146244824
:1009F000006803F0A3FD10BD10B520211E4801F0D2
:100A0000DDFD012832D11C4801F02CFD1D49087084
:100A10001D48006848B908460078FA2826D11B49C5
:100A2000087001201849086020E016480078FE2868
:100A300011D1144800781549134A12688854124895
:100A40000078401C1249087000200F4908600120FE
:100A5000104908600AE00B4800780C490A4A1268FD
:100A6000885409480068401C0749086010BD000010
:100A700000000240000402400044004000480040E2
:100A800004000020D4000020D80000205F1C0020BB
:100A9000D5000020DC0000201FB50121084600F031
:100AA00076FC0121084600F072FC0020ADF80C0035
:100AB000ADF80600C720029044F29F10ADF8040084
:100AC00000208DF80E0001A9694800F008FE1920E9
:100AD0008DF8000003208DF801008DF80200012040
:100AE0008DF80300684600F0E8F80121604801F045
:100AF000ABFA012211465E4801F092FA00215C48EF
:100B000000F076FE1FBD1FB50121084600F02EFC47
:100B10000121084600F02AFC0020ADF80C00ADF8D9
:100B20000600C720029044F29F10ADF80400002098
:100B30008DF80E0001A94FF0804000F0D0FD1C2080
:100B40008DF8000002208DF8010003208DF80200CE
:100B500001208DF80300684600F0AFF801218807F6
:100B600001F072FA01221146900701F059FA0021B2
:100B70004FF0804000F03CFE1FBD30B53D4800689E
:100B80004FF47A72B0FBF2F1B1F1807F01D3012012
:100B90001DE021F07F40401E4FF0E02250615017D1
:100BA0000022002807DA13071D0E334B00F00F0454
:100BB000241F1D5503E013071C0E304B1C5400BFAF
:100BC00000204FF0E022906107201061002008B162
:100BD00000BFFEE730BD2A4800222A4B0168591A9F
:100BE00072EB020002DA0020254908602448006800
:100BF000401C23490860704700B59DB001211C4886
:100C000001F025FA01280FD134221F49684605F06A
:100C100005FE40221C490C390DA805F0FFFD1B48BC
:100C20000DA90EC905F013FA0121114801F00CFAC3
:100C30001DB000BD10B50121880701F008FA012898
:100C400011D113488078042808D11148C0780128B0
:100C500004D11049104803F060FF04E000214FF078
:100C6000804000F0C5FD0121880701F0EDF910BDBD
:100C700000000140F400002018ED00E000E400E076
:100C8000E0000020009C57FC1C000020981B002066
:100C90005F1C0020841B00200800002010B5FFF717
:100CA00092FEFFF76AFFFFF7F7FEFFF72CFF10BD7C
:100CB00032490143324A1160704770B50021002368
:100CC0000F22C4781CB32E4C246804F4E064C4F5ED
:100CD000E064C4F30721C1F10404E3B20A4144789B
:100CE0009C40E1B28478144021430C07210E254C2E
:100CF00005786155047804F01F050124AC4005789F
:100D00006D11AD0005F1E025C5F8004109E004785A
:100D100004F01F050124AC401B4D0678761145F800
:100D2000264070BD194A0A400243154B1B1F1A602A
:100D3000704739B1124A121D12680243104B1B1D35
:100D40001A6006E00E4A121D126882430C4B1B1DEE
:100D50001A607047042808D14FF0E021096941F07A
:100D600004014FF0E022116107E04FF0E021096932
:100D700021F004014FF0E022116170470000FA05F4
:100D80000CED00E000E400E080E100E080FFFF1FE8
:100D900010B504468C48844208D10121084600F071
:100DA00007FB0021012000F003FB5EE0874884423E
:100DB00008D10121022000F0FBFA0021022000F0FE
:100DC000F7FA52E08248844208D10121042000F061
:100DD000EFFA0021042000F0EBFA46E07D4884425F
:100DE00008D10121082000F0E3FA0021082000F0DA
:100DF000DFFA3AE07848844208D10121102000F05F
:100E0000D7FA0021102000F0D3FA2EE07348844274
:100E100008D10121202000F0CBFA0021202000F091
:100E2000C7FA22E06E48844208D10121402000F038
:100E3000BFFA0021402000F0BBFA16E06948844266
:100E400008D10121802000F0B3FA0021802000F0B9
:100E5000AFFA0AE06448844207D10121801500F00E
:100E6000A7FA0021A01500F0A3FA10BDF0B50A46BC
:100E700000210023002400BF3DE0012505FA01F315
:100E8000156805EA03049C4234D105684F00032627
:100E9000BE40B543056015794E00B5400668354340
:100EA00005601579012D02D01579022D16D18568BE
:100EB0004F000326BE40B543856055794E00B540CE
:100EC000866835438560456801268E40B543456098
:100ED000456896798E40B6B235434560C5684F0087
:100EE0000326BE40B543C560D5794E00B540C668FF
:100EF0003543C560491C1029BFD3F0BD4FF6FF71C3
:100F000001600021017141718171C171704708B5A3
:100F10004FF480320092009A0A430092009AC26114
:100F2000C161009AC261C2690092C269009208BDA3
:100F30000246002013690B400BB1012000E00020A5
:100F400070470146086980B2704702460020536925
:100F50000B400BB1012000E00020704701464869BA
:100F600080B2704701837047418370470AB10183A3
:100F700000E0418370474161704742694A404261E5
:100F80007047F0B5002300244D07ED0E02FA05F37B
:100F9000CE1000F1200555F826504E07F70E0F260B
:100FA000BE40B543CF1000F1200646F82750CE10C2
:100FB00000F1200555F8265045EA0304CE1000F153
:100FC000200545F82640F0BD000002400004024024
:100FD00000080240000C02400010024000140240D1
:100FE00000180240001C024000200240F94800683E
:100FF00040F00100F74908600020F6490831086018
:10100000F4480068F4490840F2490860F348091DB3
:101010000860F348EF4984310860EE48006820F426
:101020008020EC4908600020EA490C3108607047D4
:101030000021E84A921C117011460870704710B5E3
:1010400001460022002300204A11012A02D1E14C6E
:10105000236808E0022A03D1DE4C7034236802E0E2
:10106000DC4C7434236801F01F02012494401C40BE
:101070000CB1012000E0002010BD38B50020009028
:101080000024002500BF3120FFF7D9FF0546009856
:10109000401C00900098B0F5A06F01D0002DF2D058
:1010A0003120FFF7CCFF08B1012400E000242046E6
:1010B00038BD01460020C74A106820F0F80040EA19
:1010C000C10010607047C749086070470021C14ADD
:1010D000703211701170012802D004280AD104E086
:1010E0000121BC4A7032117005E00521B94A703205
:1010F000117000E000BF00BF7047BB490860704737
:1011000070B5049C41EA82150126C6EB530645EAF8
:101110000645054345EA0465AE4E361D356070BD93
:10112000B04908667047820142EA0172A94B8433D4
:101130001A607047AB4988667047AA49C86470470F
:1011400002460020A34B0833186820F0EC6042EA06
:10115000010318439F4B0833186070470246002074
:101160009C4B0833186820F0784042EA010318438A
:10117000984B08331860704701460020954A0832A2
:10118000106820F003000843106070479148083051
:10119000006800F00C007047014600208D4A0832BC
:1011A000106820F0F00008431060704701460020EE
:1011B000884A0832106820F4E050084310607047F5
:1011C00001460020834A0832106820F4604040EA5B
:1011D000C10010607047F0B50021002200240225F4
:1011E000002602237B4F08373F6807F00C0121B12E
:1011F000042905D0082937D105E07C4F076036E087
:101200007B4F076033E0734F3F1D3F68C7F3805645
:10121000704F3F1D3F6807F03F036EB1744FB7FB3F
:10122000F3F7DFF8B0C10CF1040CDCF800C0CCF32C
:10123000881C07FB0CF40CE06C4FB7FBF3F7DFF8EE
:1012400094C10CF1040CDCF800C0CCF3881C07FB43
:101250000CF4604F3F1D3F68C7F301477F1C7D00C2
:10126000B4FBF5F7076002E0604F076000BF00BF06
:10127000584F08373F6807F0F00109095D4F7A5C65
:101280000768D7404760534F08373F6807F4E0517D
:10129000890A584F7A5C4768D74087604D4F0837B6
:1012A0003F6807F46041490B524F7A5C4768D7406A
:1012B000C760F0BD002100F44072B2F5407F0AD152
:1012C000444A0832116821F4F8114B4A0240114394
:1012D000404A083211603F4A70321268C0F30B0373
:1012E0001A433C4B70331A6070473F4944390860D9
:1012F00070473D4940390860704740490860704771
:101300003F490860704739B1324A303212680243AF
:10131000304B30331A6006E02E4A30321268824376
:101320002C4B30331A60704739B12A4A3432126874
:101330000243284B34331A6006E0264A34321268DE
:101340008243244B34331A60704739B1214A383212
:10135000126802431F4B38331A6006E01D4A3832C8
:10136000126882431B4B38331A60704739B1194AEF
:10137000403212680243174B40331A6006E0154AA8
:10138000403212688243134B40331A60704739B1C0
:10139000104A4432126802430E4B44331A6006E08E
:1013A0000C4A4432126882430A4B44331A60704735
:1013B00039B1084A103212680243064B10331A60E2
:1013C00006E0044A103212688243024B10331A605E
:1013D0007047000000380240FFFFF6FA103000248A
:1013E0000030002000004742800E47420024F400F5
:1013F00000127A00E4000020FFFCFF0F5C0147426E
:10140000E011474229B15E4A126802435C4B1A6000
:1014100004E05B4A12688243594B1A60704739B145
:10142000574A121D12680243554B1B1D1A6006E0F5
:10143000534A121D12688243514B1B1D1A6070479C
:1014400039B14F4A0C32126802434D4B0C331A60CB
:1014500006E04B4A0C3212688243494B0C331A6047
:10146000704739B1464A103212680243444B103378
:101470001A6006E0424A103212688243404B103331
:101480001A60704739B13E4A3C32126802433C4B05
:101490003C331A6006E03A4A3C3212688243384BC9
:1014A0003C331A60704739B1354A40321268024302
:1014B000334B40331A6006E0314A403212688243AF
:1014C0002F4B40331A60704739B12D4A44321268AD
:1014D00002432B4B44331A6006E0294A4432126817
:1014E0008243274B44331A60704739B1244A4C3247
:1014F00012680243224B4C331A6006E0204A4C32F9
:10150000126882431E4B4C331A60704739B11C4A33
:101510005032126802431A4B50331A6006E0184AE0
:10152000503212688243164B50331A60704739B1FB
:10153000134AD21F12780243114BDB1F1A7006E0C8
:101540000F4AD21F127882430D4BDB1F1A7070476F
:101550000B486030006840F08070094960310860D5
:10156000704701460020064A083A12680A400AB14C
:10157000012000E0002070470149891F0870704772
:101580001438024010B50446FE48844208D10121B7
:101590000846FFF766FF00210120FFF762FF9DE08C
:1015A000B4F1804F08D101210846FFF749FF00211F
:1015B0000120FFF745FF91E0F348844208D1012163
:1015C0000220FFF73DFF00210220FFF739FF85E0F1
:1015D000EE48844208D101210420FFF731FF0021A9
:1015E0000420FFF72DFF79E0E948844208D101216A
:1015F0000820FFF725FF00210820FFF721FF6DE0FD
:10160000E448844208D101211020FFF719FF00218E
:101610001020FFF715FF61E0DF48844208D1012167
:101620002020FFF70DFF00212020FFF709FF55E0E4
:10163000DA48844208D101210220FFF712FF00217D
:101640000220FFF70EFF49E0D548844209D101216D
:101650000804FFF706FF00214FF48030FFF701FF79
:101660003CE0D048844209D101214804FFF7F9FE4B
:1016700000214FF40030FFF7F4FE2FE0CA48844207
:1016800009D101218804FFF7ECFE00214FF48020EE
:10169000FFF7E7FE22E0C548844208D1012140203F
:1016A000FFF7CEFE00214020FFF7CAFE16E0C0483B
:1016B000844208D101218020FFF7C2FE0021802052
:1016C000FFF7BEFE0AE0BB48844207D10121801526
:1016D000FFF7B6FE0021A015FFF7B2FE10BD0022F5
:1016E0000288A84B98420ED0AC4B98420BD0B0F178
:1016F000804F08D0A44B984205D0A44B984202D00A
:10170000A34B984204D14FF68F731A404B881A436B
:10171000A04B984207D0A04B984204D04FF6FF430D
:101720001A400B891A4302804B68C3620B880385F9
:10173000944B984202D0994B984201D18B7A038600
:101740000123838270474FF0FF3141600021018007
:1017500001814180817270470185828270470A460B
:10176000002101884FF68F731940114301807047A3
:1017700041627047C16270470146486A704701463E
:10178000088D704721B1028842F00202028004E015
:1017900002884FF6FD731A400280704721B102881B
:1017A00042F00402028004E002884FF6FB731A4004
:1017B0000280704721B1028842F08002028004E07A
:1017C00002884FF67F731A400280704702884FF6F6
:1017D000F7731A40028002880A4302807047028829
:1017E0004FF6FF431A40028002880A430280704786
:1017F00021B1028842F00102028004E002884FF623
:10180000FE731A400280704770B500240022002346
:10181000058C4FF6FE7635400584028C8388048B58
:101820004FF68F752C40B51E2C400D882C43751E2D
:101830002A408D892A434D882A43524DA84202D01E
:10184000564DA84213D14FF6F7752A40CD892A4349
:101850004FF6FB752A408D882A434FF6FF652B40D3
:101860004FF6FF552B400D8A2B434D8A2B43838027
:1018700004838D684563028470BD70B50024002226
:101880000023058C4FF6EF7635400584028C838863
:10189000048B48F6FF752C404FF6FF452C400D8811
:1018A0004FF6FF7606EA05252C434FF6DF752A40F2
:1018B0008D8906EA05152A434D8806EA05152A434F
:1018C000304DA84202D0354DA8421DD14FF67F754C
:1018D0002A40CD894FF6FF7606EA05152A434FF6D2
:1018E000BF752A408D8806EA05152A434FF6FF3555
:1018F0002B404FF2FF752B400D8A06EA85052B43DE
:101900004D8A06EA85052B43838004838D688563B1
:10191000028470BD70B5002400220023058C4FF6B0
:10192000FF6635400584028C8388848B4FF68F7563
:101930002C404FF6FC752C400D882C434FF6FF557C
:101940002A408D894FF6FF7606EA05252A434D8801
:1019500006EA05252A430B4DA84202D00F4DA842A6
:1019600038D14FF2FF752A40CD894FF6FF7606EA4F
:1019700005252A434FF6FF352A408D8806EA0525BE
:101980002A4319E000000140000400400008004024
:10199000000C004000100040001400400004014012
:1019A0000040014000440140004801400018004050
:1019B000001C0040002000404EF6FF752B404DF605
:1019C000FF752B400D8A06EA05152B434D8A06EA62
:1019D00005152B43838084838D68C563028470BDA5
:1019E00070B5002200230024058C4EF6FF763540AA
:1019F0000584038C8488828B48F6FF752A404FF655
:101A0000FF452A400D884FF6FF7606EA05252A4352
:101A10004DF6FF752B408D8906EA05352B434D8821
:101A200006EA05352B43FE4DA84202D0FD4DA842E3
:101A300008D14BF6FF752C400D8A4FF6FF7606EA6B
:101A400085152C43848082838D680564038470BD72
:101A5000002101804180818081608181C18101827A
:101A60004182704770B503460020002418461830A4
:101A700001258D40ACB21D8CA5431D8409B10829F8
:101A80000AD100EB610005684FF68F76354005609E
:101A90000568154305600FE00D1FC5F34E0528448A
:101AA000056848F6FF763540056005684FF6FF7615
:101AB00006EA02263543056070BD416370478163C5
:101AC0007047C1637047016470470A460021018B6B
:101AD0004FF68F7319401143018370470A46002166
:101AE000018B48F6FF7319404FF6FF7303EA022398
:101AF0001943018370470A460021818B4FF68F738B
:101B000019401143818370470A460021818B48F6B2
:101B1000FF7319404FF6FF7303EA022319438183D1
:101B200070470A460021018B4FF6F77319401143A5
:101B3000018370470A460021018B4FF2FF73194061
:101B40004FF6FF7303EA02231943018370470A46E5
:101B50000021818B4FF6F773194011438183704741
:101B60000A460021818B4FF2FF7319404FF6FF7335
:101B700003EA02231943818370470A460021018B3F
:101B80004FF6FB7319401143018370470A46002149
:101B9000018B4FF6FF3319404FF6FF7303EA022320
:101BA0001943018370470A460021818B4FF6FB736E
:101BB00019401143818370470A460021818B4FF6FB
:101BC000FF3319404FF6FF7303EA02231943818361
:101BD00070470A460021018B4FF67F73194011436D
:101BE000018370470A460021018BC1F30E014FF6B5
:101BF000FF7303EA02231943018370470A46002159
:101C0000818B4FF67F7319401143818370470A46D9
:101C10000021818BC1F30E014FF6FF7303EA02230B
:101C20001943818370470A460021018C4FF6FD73EA
:101C300019401143018470470A460021018C4FF678
:101C4000F77319401143018470470A460021018C43
:101C50004FF6DF7319404FF6FF7303EA021319437F
:101C6000018470470A460021018C4FF67F731940AA
:101C70004FF6FF7303EA02131943018470470A46C3
:101C80000021018C4FF6FF5319404FF6FF7303EA12
:101C900002231943018470470A460021018C4FF248
:101CA000FF7319404FF6FF7303EA022319430184BF
:101CB00070470A460021018C4DF6FF7319404FF61C
:101CC000FF7303EA023319430184704730B50023E0
:101CD00001248C40A3B2048C9C430484048C02FA3B
:101CE00001F5ADB22C43048430BD30B5002304248B
:101CF0008C40A3B2048C9C430484048C02FA01F54A
:101D0000ADB22C43048430BD828B4FF2FF331A40B6
:101D10008283828B4FF6FF7303EA01231A43828387
:101D20007047F0B50C461546002100220026078CAE
:101D30004EF6FF7C07EA0C070784818B028C4FF676
:101D4000FF7707EA043640F6FF4739404FF6FF7742
:101D500007EA052739434FF6FF7707EA0337394388
:101D600045F6FF773A4046F480573A438183028430
:101D7000F0BD828B4FF6F3731A408283828B0A4345
:101D800082837047F0B50C461546002100220026DC
:101D9000078C4FF6FF6C07EA0C070784818B028CD7
:101DA0004FF6FF7707EA04264FF60C7739404FF6D7
:101DB000FF7707EA03172F4339434FF2FF573A40A3
:101DC00046F480773A4381830284F0BD028B4FF260
:101DD000FF331A400283028B4FF6FF7303EA01239D
:101DE0001A4302837047F0B50C46154600210022C5
:101DF0000026078C4FF6EF7C07EA0C070784018B5F
:101E0000028C4FF6FF7707EA041640F6FF47394089
:101E10004FF6FF7707EA033739434FF6FF7703E0C2
:101E2000000001400004014007EA052739434FF64E
:101E30005F773A4046F010073A4301830284F0BDD1
:101E4000028B4FF6F3731A400283028B0A4302831C
:101E50007047F0B50C46154600210022068C4FF65F
:101E6000FE773E400684018B028C4FF60C763140A3
:101E70007E1C06EA03162E4331434FF6F5763240B8
:101E800044F00106324301830284F0BD70B505467B
:101E90000C46208850B92389A28861882846FFF71C
:101EA000D8FFE1882846FFF7CBFF25E020880428EB
:101EB0000AD12389A28861882846FFF794FFE18828
:101EC0002846FFF783FF17E0208808280AD12389D6
:101ED000A28861882846FFF755FFE1882846FFF76A
:101EE00048FF09E02389A28861882846FFF719FF87
:101EF000E1882846FFF708FF70BD0021018041807E
:101F0000012181800021C180018170472DE9F041CC
:101F100005460C4600260127608808B9022600E025
:101F20000026A088012801D1022700E0012720888F
:101F3000A0B92389A28861882846FFF78AFFE18833
:101F40002846FFF77DFF23893A4631462846FFF7AA
:101F50004AFFE1882846FFF739FF13E02389A2886A
:101F600061882846FFF73FFFE1882846FFF72EFFEC
:101F700023893A4631462846FFF76BFFE188284619
:101F8000FFF75EFFBDE8F0810146486B70470146F0
:101F9000886B70470146C86B70470146086C7047F4
:101FA0000A884B881A438B881A43CB881A430B89BB
:101FB0001A434B891A438B891A43A0F8442070476F
:101FC0000021018041808180C18001814181818126
:101FD000704731B1B0F8442042F40042A0F84420E8
:101FE00005E0B0F84420C2F30E02A0F84420704788
:101FF00021B1828842F00402828004E082884FF698
:10200000FB731A408280704721B1828842F001023E
:10201000828004E082884FF6FE731A408280704707
:102020001AB183890B43838102E083898B438381C7
:1020300070478182704702460020138A0B400BB123
:10204000012000E000207047CA430282704730B58B
:102050000246002000230024158A05EA0103958921
:1020600005EA010413B10CB1012000E0002030BDED
:10207000CA430282704741EA0203A0F84830704721
:102080001AB183890B43838102E083898B43838167
:10209000704721B1828842F00802828004E0828881
:1020A0004FF6F7731A408280704701894FF6F87235
:1020B0001140018170470A46002101894FF68F7354
:1020C000194011430181704730B504460D46294639
:1020D0002046FFF7F0FF208940F00700208130BD47
:1020E0002DE9F04104460D4616461F46602D06D1E7
:1020F0003B46012231462046FFF775FE05E03B4690
:10210000012231462046FFF7A4FE29462046FFF76C
:10211000D2FF208940F007002081BDE8F08130B572
:102120000C4600210189C9B24FF6FF7505EA032567
:10213000154325432943018130BD2DE9F041054672
:102140000E4617469846002443463A4631462846EE
:10215000FFF7E5FF2C894FF6F870044044F00704C0
:102160004FF68F70044044F070042C81BDE8F0817C
:10217000F0B504460D4616461F463B4632462946F4
:102180002046FFF7CCFF208940F480402081F0BD3D
:1021900082884FF68F731A40828082880A43828039
:1021A000704702894FF6F8731A40028102890A4388
:1021B0000281704702894FF67F731A4002810289BB
:1021C0000A4302817047F0B50C4615461E460021B1
:1021D000002200230189028B038C4FF6F8773940E7
:1021E00021434FF6FC473A4040F201173A434FF67D
:1021F000DD773B404FF6FF7707EA06172F433B4357
:10220000018102830384F0BD21B1828842F0800203
:10221000828004E082884FF67F731A408280704784
:10222000A0F850107047000010B50446FA488442E8
:1022300008D101211020FFF714F900211020FFF729
:1022400010F957E0F548844209D101214804FFF70D
:10225000F7F800214FF40030FFF7F2F84AE0F048B9
:10226000844209D101218804FFF7EAF800214FF4E4
:102270008020FFF7E5F83DE0EA48844209D10121DA
:10228000C804FFF7DDF800214FF40020FFF7D8F86D
:1022900030E0E548844209D101210805FFF7D0F874
:1022A00000214FF48010FFF7CBF823E0DF48844291
:1022B00008D101212020FFF7D4F800212020FFF7CA
:1022C000D0F817E0DA48844209D101218807FFF7E6
:1022D000B7F800214FF08040FFF7B2F80AE0D54888
:1022E000844207D101214005FFF7AAF800216005CB
:1022F000FFF7A6F810BD2DE9FF4705460E4600245E
:10230000A14600BFA046B08900B100BF2C8A24F4CA
:102310004054F08804432C82AC8941F20C60844321
:10232000B08831890843718908430443AC81AC8A81
:1023300024F44074B0890443AC826846FEF74BFF36
:10234000B548854202D0B948854202D1DDF80C90EB
:1023500001E0DDF80890A88900F4004040B109EBE5
:10236000C90000EB091031684900B0FBF1F707E044
:1023700009EBC90000EB091031688900B0FBF1F7E7
:102380006420B7FBF0F004012009642101FB107800
:10239000A88900F4004040B1322000EBC800B0FB37
:1023A000F1F000F00700044308E0322000EB0810D1
:1023B0006421B0FBF1F000F00F0004432C81BDE874
:1023C000FF874FF41651016000218180C180018197
:1023D0000C21418100218181704710B50246002007
:1023E000108A20F470600B884C8823438C88234328
:1023F000CC8823431843108210BD00210180418006
:102400008180C180704721B1828942F4005282816B
:1024100004E082894DF6FF731A4082817047028B77
:1024200002F47F420283028B0A430283704721B188
:10243000828942F40042828103E08289C2F30E0263
:102440008281704721B1828A42F40062828204E074
:10245000828A4FF2FF731A4082827047C1F30802EA
:102460008280704701468888C0F308007047028A5E
:102470004FF6F0731A400282028A0A4302827047C2
:1024800021B1828942F00202828104E082894FF602
:10249000FD731A408281704782894FF2FF731A40A0
:1024A000828182890A4382817047028A4FF6DF73F4
:1024B0001A400282028A0A430282704721B1028ACC
:1024C00042F48042028204E0028A4BF6FF731A4013
:1024D00002827047818941F001018181704721B1F9
:1024E000828A42F00802828204E0828A4FF6F77301
:1024F0001A4082827047028BD2B20283028B42EA78
:1025000001220283704721B1828A42F02002828236
:1025100004E0828A4FF6DF731A408282704721B14D
:10252000828A42F01002828204E0828A4FF6EF73C0
:102530001A4082827047828A4FF6FB731A40828269
:10254000828A0A438282704721B1828A42F0020263
:10255000828204E0828A4FF6FD731A4082827047BD
:102560001AB1838A0B43838202E0838A8B4383827E
:102570007047F0B50346002400260025002040F6F1
:102580006A17B94200D100BF1846C1F3421401F0E6
:102590001F06012707FA06F5012C01D10C3004E0D3
:1025A000022C01D1103000E014301AB107682F431B
:1025B000076002E00768AF430760F0BD02460020F5
:1025C000B1F5007F00D100BF13880B400BB1012093
:1025D00000E00020704701F40072B2F5007F00D1E6
:1025E00000BFCA430280704770B502460024002332
:1025F0000025002040F66A16B14200D100BFC1F3A9
:10260000421501F01F03012606FA03F3012D13D131
:102610009689334017E0000000100140004400405C
:1026200000480040004C00400050004000140140B1
:1026300000780040007C0040022D02D1168A334011
:1026400001E0968A33400C12012606FA04F416883B
:10265000344013B10CB1012000E0002070BD10B572
:102660000022002340F66A14A14200D100BF0A12E2
:1026700001249440A3B2DC43048010BD0CB50020BB
:10268000019000907648006840F4803074490860FA
:1026900000BF7348006800F4003000900198401CAF
:1026A0000190009818B90198B0F5A06FF1D16C486D
:1026B000006800F4003010B10120009001E000201B
:1026C00000900098012846D165484030006840F0ED
:1026D00080506349403108606248006840F44040DF
:1026E000604908605E48083000685D49083108604C
:1026F0000846006840F4004008600846006840F45E
:10270000A05008605848091F0860081F006840F082
:102710008070091F086000BF5148006800F0007019
:102720000028F9D040F20570504908604C48083044
:10273000006820F003004A49083108600846006834
:1027400040F00200086000BF45480830006800F013
:102750000C000828F8D10CBD10B54548006840F4BD
:102760007000434908603E48006840F001003C4961
:10277000086000203A4908310860394800683D493E
:102780000840374908603C48091D0860081F006878
:1027900020F48020091F0860002031490C310860B6
:1027A000FFF76CFF4FF0006031498039086010BDC1
:1027B00070B500200022022300240221284D083594
:1027C0002D6805F00C0020B1042806D0082834D16B
:1027D00007E02A4D2A4E356033E02A4D284E3560F9
:1027E0002FE01F4D2D1D2D68C5F380541C4D2D1D50
:1027F0002D6805F03F0154B1224DB5FBF1F5184E9F
:10280000361D3668C6F3881605FB06F209E01B4D37
:10281000B5FBF1F5124E361D3668C6F3881605FB7A
:1028200006F20F4D2D1D2D68C5F301456D1C6B0083
:10283000B2FBF3F5124E356003E0104D104E3560DB
:1028400000BF00BF064D08352D68C5F303150E4EB9
:10285000705D0B4D2D68C540094E356070BD0000A0
:10286000003802400070004008544007003C02401D
:1028700088ED00E0FFFFF6FE103000240024F40095
:10288000F400002000127A00F8000020064880477B
:1028900006480047FEE7FEE7FEE7FEE7FEE7FEE745
:1028A000FEE7FEE7FEE7FEE759270008890100087A
:1028B0007FB504460D46089E41F27C20055100205C
:1028C000A4F85A0500214FF4AC600153801E015357
:1028D0000020A4F85C0584F88219C4F8DC044FF4E5
:1028E0009C6001510020C4F8D4044FF49B60015156
:1028F0000298C4F8FC044FF4A06003990151002031
:10290000C4F80200012141F281200155801C0155CB
:10291000C01E0655204602F0CFFF7FBD2DE9FE43C5
:1029200006460F4614461D46DDF828800195CDF871
:102930000880009439463046DDE90123FFF7B8FFEF
:102940003046BDE8FE837FB582B004460D460A9E40
:10295000009629462046DDE90423FFF7A9FF20461B
:1029600006B070BD7FB584B0044616461D462A46A3
:10297000314604F2764003F051FF9DF8160000F056
:102980001F01BDF8040061F30700ADF80400BDF8B5
:102990001400ADF806009DF81600C0F34011BDF814
:1029A000040061F30F20ADF8040004F276400390B8
:1029B000029501A9204602F0DDFE08B070BD2DE9A8
:1029C000F04F85B004460E4617469846DDF838B0FD
:1029D000DDF84CA0DDF8409004F1760505F8018B98
:1029E00005F801BB4A4604F178000F9903F016FF81
:1029F00011980390BDF8000066F30100ADF80000E7
:102A000009F10200019004F176000290BDF8000087
:102A10006AF3CF00ADF80000129880B2ADF8020062
:102A2000BDF8000067F38200ADF8000000200490BC
:102A30006946204602F015FC05B0BDE8F08F2DE98F
:102A4000F04F85B004460F4616469846DDF838B07C
:102A5000DDF848A0DDF8409004F1760505F8018B1B
:102A600005F801BB4A4604F178000F9903F0D6FE41
:102A700013980390BDF8000067F30100ADF8000063
:102A800009F10200019004F176000290BDF8000007
:102A90006AF3CF00ADF80000119880B2ADF80200E3
:102AA000BDF8000066F38200ADF8000014980490B1
:102AB0006946204602F0D5FB05B0BDE8F08F70B541
:102AC00004460D462946204602F0CBFB70BD014668
:102AD00041F27C20405870472DE9FC4104460E46E7
:102AE000174606F10C052878697800EB0120A4F858
:102AF0000405AD1C2878697800EB0120A97800EB6B
:102B00000140E97800EB0161C4F806152D1D202273
:102B1000294604F20A5003F081FEB4F80405D121DD
:102B2000F44BF5A2CDE90010F5A1FE4804F01EFD1E
:102B300041F27C210859095909680A6A0021904725
:102B4000D4F80605D221EB4BEBA2CDE90010F6A19B
:102B5000F44804F00BFD41F27C2108590959096839
:102B60000A6A0021904704F20A50D621E14BE2A202
:102B7000CDE90010F5A1EB4804F0F8FC41F27C210E
:102B80000859095909680A6A00219047BDE8FC8183
:102B90002DE9F04188B004460D4616464FF6FF7009
:102BA000A4F804050021C4F8061540F20A500155A6
:102BB00064274FF00308002007900DB1284601E07C
:102BC000AFF2EB00CDE90378CDE90506012007A9B6
:102BD00000221346CDE90021029002212046FFF792
:102BE0002EFF08B0BDE8F0812DE9FF4704460D46F1
:102BF00092462868C0F309201038022874D8286843
:102C0000C0F30920A0F1100205F10C0103A803F0A4
:102C100005FEBDF80C00092867D2DFE800F0054387
:102C200054326778899AAC00E420D14BB2A2D1A18A
:102C30000090BC4804F09AFC41F27C2108590959E3
:102C400009680A6A002190472046FFF740FF804646
:102C50000068816940468847012084F87500204655
:102C6000FFF735FF81460068C16948468847D4F8B8
:102C7000560520B1D4F85615204602F08BF9BDE870
:102C8000FF87EE20BA4B9CA2C4A10090A54804F097
:102C90006DFC41F27C210859095909680A6A002132
:102CA000904797E0F120B24BC6A2C8A100909D4882
:102CB00004F05CFC41F27C210859095909680A6A50
:102CC0000021904786E0F420A94BBEA2CAA1009043
:102CD000944804F04BFC41F27C21085909590968D9
:102CE0000A6A0021904775E089E05BE0F720A04B7D
:102CF000B4A2CBA100908B4804F038FC41F27C21B7
:102D00000859095909680A6A0021904762E0FA20C7
:102D1000974BACA2CEA10090824804F027FC41F270
:102D20007C210859095909680A6A0021904751E035
:102D3000FE208F4BA3A2D64900907A4804F016FCDF
:102D400041F27C210859095909680A6A0021904713
:102D500040E040F20310864B9AA2CEA10090714849
:102D600004F004FC41F27C210859095909680A6AF7
:102D7000002190472EE04FF483707D4B91A2D1A1AA
:102D80000090684804F0F2FB41F27C21085909598F
:102D900009680A6A00219047002211462046FFF781
:102DA000F7FE17E0BDF80C10204601F0D0FC80B90A
:102DB0004FF486706E4B83A2CFA10090594804F067
:102DC000D5FB41F27C210859095909680A6A00219A
:102DD000904700BF00BF2046FFF779FE0646006817
:102DE000816930468847002084F875002046FFF747
:102DF0006EFE07460068C1693846884717E0288993
:102E000080B22968C1F304614FF48B72584BCDE94D
:102E1000002102906BA2C3A1424804F0A7FB41F23B
:102E20007C210859095909680A6A0021904700BFA6
:102E300025E7F0B587B004460D4616461F463022FA
:102E4000294604F22A5003F0E9FC002004E039226C
:102E500005F10C010A54401C2028F8DB0EB1304665
:102E600001E0AFF27B2003214FF47A72CDE9050730
:102E7000CDE903212C2104F22A5001220023CDE9BF
:102E8000002002911A4602212046FFF7D8FD07B024
:102E9000F0BD70B58AB004460D4616464FF6FF7079
:102EA0000990012008902868C0F3092010380228F2
:102EB0000AD82868C0F30920A0F1100205F10C011E
:102EC00009A803F0ABFC50E1288980B22968C1F35E
:102ED000046140F25512A24BCDE90021029039A2C3
:102EE00090A1104804F042FB41F27C210859095995
:102EF000096837E1FE7E00085354415455530000E1
:102F000025732025732C6C696E652025643A207624
:102F1000657273696F6E2061636B203D2025640AC2
:102F200000000000071D002025732025732C6C690C
:102F30006E652025643A2076657273696F6E206332
:102F40007263203D20307825580A00002573202523
:102F5000732C6C696E652025643A207665727369FE
:102F60006F6E206E616D65203D2025730A000000A4
:102F7000ED7E000825732025732C6C696E65202575
:102F8000643A2041637469766174696F6E20537589
:102F9000636365737366756C6C790A00257320250D
:102FA000732C6C696E652025643A206E6577206409
:102FB00065766963652074727920616761696E0A5C
:102FC000000000004552524F52000000257320259A
:102FD000732C6C696E652025643A20616374697690
:102FE0006174652057726F6E6720706168616D65EE
:102FF0007465720A0000000025732025732C6C692B
:103000006E652025643A2061637469766174652079
:10301000656E636F6465206572726F720A000000EE
:1030200025732025732C6C696E652025643A206118
:103030006374697661746520444A49474F206E6F16
:103040007420636F6E6E65637465640A000000002F
:1030500025732025732C6C696E652025643A2061E8
:103060006374697661746520444A49474F206E6FE6
:103070007420636F6E6E656374656420746F207472
:10308000686520696E7465726E65740A00000000E0
:10309000D082000825732025732C6C696E6520256D
:1030A000643A2061637469766174652057726F6E4B
:1030B000672053444B207065726D697373696F6E3E
:1030C0000A00000025732025732C6C696E6520258D
:1030D000643A2061637469766174652053444B20BF
:1030E00076657273696F6E20646964206E6F7420F8
:1030F0006D617463680A000025732025732C6C6968
:103100006E652025643A205768696C652063616CA0
:103110006C696E6720746869732066756E63746984
:103120006F6E000025732025732C6C696E65202559
:10313000643A2041434B206973206578636570745D
:10314000696F6E2C73656573696F6E2069642025E5
:10315000642C73657175656E63652025640A0000D3
:10316000117F00080A6A00219047BDF82400032857
:1031700044D005DC48B101281AD002286DD12AE0DC
:10318000042864D0C928F9D18DE04FF4AE70F74B14
:10319000AFF29C22F6490090F64804F0E7F941F2BC
:1031A0007C210859095909680A6A00219047A7E05B
:1031B0004FF4B070ED4BAFF2C022EFA10090ED489C
:1031C00004F0D4F941F27C210859095909680A6AC6
:1031D0000021904794E040F26310E44BAFF2E82204
:1031E000F1A10090E34804F0C1F941F27C210859B3
:1031F000095909680A6A0021904781E04FF4B370C9
:10320000DA4BAFF20C32F3A10090DA4804F0AEF9D9
:1032100041F27C210859095909680A6A002190473E
:103220000020AFF2913102224FF4FA73CDE903325C
:10323000CDE90510012008A900220346CDE90021AF
:103240000290024602212046FFF7F9FB58E040F2C7
:103250006B10C64BAFF2603200E037E0E7A10090A0
:10326000C44804F083F941F27C21085909590968DE
:103270000A6A0021904700200890AFF2E93102224B
:103280004FF4FA73CDE90332CDE90510012008A906
:1032900000220346CDE90021029002460221204689
:1032A000FFF7CDFB2CE040F27110B04BAFF2B8321B
:1032B000DCA10090AF4804F059F941F27C21085993
:1032C000095909680A6A0021904719E0BDF82410DD
:1032D000204601F03CFA90B94FF4BB70A34BAFF21B
:1032E0001C32AFF2EC110090A24804F03FF941F219
:1032F0007C210859095909680A6A0021904700BFD2
:1033000000BF0AB070BDF0B589B007460C4615463F
:103310001E4608940DB1284601E0AFF28940022113
:103320004FF4FA72CDE90506CDE90321012008A981
:1033300000220346CDE900210290024602213846D0
:10334000FFF77DFB09B0F0BD7FB505460C4616467C
:103350004FF6FF7003902068C0F309201038022850
:1033600024D82068C0F30920A0F1100204F10C0158
:1033700003A803F053FABDF80C10284601F0E7F952
:1033800000282DD14FF49270B44BAFF2C832AFF297
:1033900098210090774804F0E9F841F27C214859DF
:1033A000495909680A6A0021904719E0208980B2CA
:1033B0002168C1F3046140F22912A84BCDE9002134
:1033C0000290AFF20042AFF2A4216A4804F0CEF8B6
:1033D00041F27C214859495909680A6A00219047FD
:1033E0007FBD2DE9F04188B004460E4615461F46C4
:1033F000DDF83880642D13DD9520994BAFF23C4207
:1034000098A100905B4804F0B1F841F27C21085982
:10341000095909680A6A0021904708B0BDE8F0819F
:103420000FB1384601E0AFF2DF0002214FF4FA722B
:10343000CDE90508CDE90321FE2000231A46CDE998
:10344000016500902046FFF7FAFA00BFE5E77CB57A
:1034500004460D4616464FF6FF7001902868C0F3EB
:1034600009201038022809D82868C0F30920A0F1E3
:10347000100205F10C0101A803F0D0F9BDF8040019
:1034800010B1012826D112E040F23B107F4BAFF281
:1034900098527FA10090374804F068F841F27C21EF
:1034A0000859095909680A6A002190472CE04FF42D
:1034B0009F70764BAFF2F4427FA100902D4804F04C
:1034C00055F841F27C210859095909680A6A002116
:1034D000904719E0BDF80410204601F038F990B982
:1034E00040F24310694BAFF22452AFF2F431009036
:1034F000204804F03BF841F27C2108590959096839
:103500000A6A0021904700BF00BF7CBDF0B587B0BC
:1035100007460C4615461E4600200DE0215C0C298E
:1035200007DA215C052901DD052100E00021215495
:1035300001E000212154401C1028EFDB0DB128468A
:1035400001E0AFF2F50001216422CDE90506CDE9E5
:1035500003211020CDE9000400231A460221029025
:103560003846FFF76CFA07B0F0BD0000117F000885
:1035700028830008071D002025732025732C6C6903
:103580006E652025643A2072656C65617365206301
:103590006F6E74726F6C2073756363657373667599
:1035A0006C6C790A0000000025732025732C6C696F
:1035B0006E652025643A206F627461696E20636FC6
:1035C0006E74726F6C207375636365737366756C6C
:1035D0006C790A0025732025732C6C696E65202593
:1035E000643A206F627461696E20636F6E74726FEB
:1035F0006C2072756E6E696E670A00002573202557
:10360000732C6C696E652025643A2072656C656167
:10361000736520636F6E74726F6C2072756E6E6965
:103620006E670A0025732025732C6C696E65202552
:10363000643A20494F43206D6F6465206F70656E5A
:10364000696E672063616E206E6F74206F627461B3
:10365000696E20636F6E74726F6C0A00247F0008BD
:10366000E07E000825732025732C6C696E6520258B
:10367000643A20546F6F206D7563682064617461D3
:1036800020746F2073656E6400000000397F0008AD
:1036900025732025732C6C696E652025643A2046BD
:1036A00072657175656E63792073657420737563D7
:1036B000636573730000000025732025732C6C690B
:1036C0006E652025643A204672657175656E637972
:1036D00020706172616D65746572206572726F72BF
:1036E000000000000146D1F802007047014691F841
:1036F0007200704770B505460C46302204F22A511C
:10370000284603F08BF870BD014641F28120405CF1
:103710007047014641F28220405C7047014641F209
:103720008320405C704741F281221154704741F27E
:1037300082221154704741F283221154704741F2A2
:103740007C221150704770B504460D463022294640
:1037500004F22A5003F062F870BD0000014601F146
:103760000C0210787047024602F10C01491C0878DF
:10377000704770B504460D4676222946204603F070
:103780004DF870BD0146486F7047014691F87300CF
:103790007047C0F8DC144FF49C631A50704707B5AB
:1037A00000F59061DDE90123C1E915230EBDFEB5E9
:1037B00004460F4607F10C0541F27C2210591259BC
:1037C000126891698847AD1C2E46308820800220FF
:1037D000029002A80421CDE9001030882B46A21CDB
:1037E000012103F05AFE02A81021CDE90010308813
:1037F0002B46A21D022103F050FE02A80C21CDE9A8
:10380000001030882B4604F11602042103F045FE17
:1038100002A80D21CDE9001030882B4604F12202C8
:10382000082103F03AFE02A80C21CDE900103088EF
:103830002B4604F12F02102103F02FFE02A81921BC
:10384000CDE9001030882B4604F13B02202103F023
:1038500024FE02A80621CDE9001030882B4604F191
:103860005402402103F019FE02A80C21CDE90010FA
:1038700030882B4604F15A02802103F00EFE02A884
:103880000C21CDE9001030882B4604F166024FF47C
:10389000807103F002FE02A80121CDE900103088FA
:1038A0002B4604F17202490203F0F7FD02A8012140
:1038B000CDE9001030882B4604F17302890203F031
:1038C000ECFD02A80121CDE9001030882B4604F15F
:1038D0007402C90203F0E1FD41F27C221059125931
:1038E0001268D1698847D4F8DC0438B14FF49C6081
:1038F000025939462046D4F8DC349847FEBD70B5ED
:103900009EB004460D46642105A802F0AEFFAE7BD2
:103910002846FFF723FF02287BD12846FFF723FF25
:10392000052877D2DFE800F00324085DF10029467E
:103930002046FFF73CFFFAE0D4F8D404B8B16E207B
:10394000824B83A284A100908E4803F00FFE41F2C7
:103950007C210859095909680A6A002190474FF4E7
:103960009B60025929462046D4F8D4349847DEE0BB
:103970007320764B76A284A10090824803F0F6FD76
:1039800041F27C210859095909680A6A00219047C7
:103990002868C0F30460002822DD00208DF815009F
:1039A0008DF814002868C0F30460BDF8081060F3B7
:1039B0000701ADF80810288980B2ADF80A0028790F
:1039C000C0F34210BDF8081060F30F21ADF80810E5
:1039D00005A804900220039002A9204601F0CAFE27
:1039E000A5E0052E7CD2DFE806F003042748690035
:1039F00088E041F28220005DE8B1D4F8EC0450B1D7
:103A00004FF49E60025929462046D4F8EC3498477A
:103A100011E08DE07AE08D204C4B4DA264A1009026
:103A2000584803F0A3FD41F27C210859095909685F
:103A30000A6A0021904765E041F28120005DD8B11B
:103A4000D4F8E40440B14FF49D6002592946204661
:103A5000D4F8E43498470FE097203C4B3CA25CA19B
:103A60000090484803F082FD41F27C210859095931
:103A700009680A6A0021904744E041F28320005D12
:103A8000D8B1D4F8F40440B14FF49F6002592946EC
:103A90002046D4F8F43498470FE0A0202B4B2CA2FA
:103AA00052A10090374803F061FD41F27C21085992
:103AB000095909680A6A0021904723E0A420234B92
:103AC00023A252A100902F4803F050FD41F27C2127
:103AD0000859095909680A6A0021904712E0FFE76E
:103AE000A7201A4B50A252A1CDE90006254803F0A9
:103AF0003DFD41F27C210859095909680A6A0021F3
:103B0000904700BF00BF12E0FFE710E0AF200F4B6F
:103B10000FA252A100901B4803F028FD41F27C2126
:103B20000859095909680A6A0021904700BF00BF77
:103B3000D4F8FC0438B14FF4A0600259294620465D
:103B4000D4F8FC3498471EB070BD00004E7F0008CA
:103B5000535441545553000025732025732C6C6930
:103B60006E652025643A2052656365766965206438
:103B70006174612066726F6D206D6F62696C650A99
:103B800000000000071D002025732025732C6C69A0
:103B90006E652025643A206F6E626F6172645344D3
:103BA0004B206C6F737420636F6E74726C0A00002C
:103BB00025732025732C6C696E652025643A204D91
:103BC0006F646520776179706F696E74200A0000F8
:103BD00025732025732C6C696E652025643A204D71
:103BE0006F6465204850200A0000000025732025DE
:103BF000732C6C696E652025643A204D6F646520D6
:103C0000466F6C6C6F77200A00000000257320253A
:103C1000732C6C696E652025643A204D6F646520B5
:103C2000494F43200A0000004552524F5200000005
:103C300025732025732C6C696E652025643A2075E8
:103C40006E6B6F776E206D697373696F6E20636F33
:103C500064652030782558200A000000257320254F
:103C6000732C6C696E652025643A206572726F72E0
:103C70002C20756E6B6E6F776E2042524F4144431D
:103C800041535420636F6D6D616E6420636F646592
:103C90000A000000014601F0800018B11B2080EAF4
:103CA000410000E04800C0B27047102103E0425CD0
:103CB000FA4B9A5C42540A1EA1F10103D9B2F6D123
:103CC0007047102103E0425CF54B9A5C42540A1E97
:103CD000A1F10103D9B2F6D1704710B50246102008
:103CE00003E0135C0C5C63401354031EA0F1010459
:103CF000E0B2F6D110BD30B50346102008E00C5CF0
:103D000014541D5C6C401C5400F110040D5D1555DD
:103D1000041EA0F10105E8B2F1D130BD427843792B
:103D20004370437A4371437B43724273827A837850
:103D300083728270C178C37BC370C37AC373C37943
:103D4000C372C171817B83798373817170474278BB
:103D5000437B4370437A4373437943724271827861
:103D6000837A83708272C178C379C370C37AC37156
:103D7000C37BC372C1738179837B83718173704705
:103D80002DE9F0410346002234E09D5C501C1E5C8E
:103D9000901C1F5CD01C13F8008085EA0600784058
:103DA00080EA080485EA0600FFF774FF6040995C2A
:103DB0004840985486EA0700FFF76CFF6040511CAA
:103DC000595C4840511C585487EA0800FFF762FFCD
:103DD0006040911C595C4840911C585488EA050089
:103DE000FFF758FF6040D11C595C4840D11C585423
:103DF000101DC2B2102AC8DBBDE8F0812DE9F84FD2
:103E00000346002251E09C5C501C1D5C901C1E5C13
:103E1000D01C1F5C84EA0500704080EA0708404619
:103E2000FFF738FF83468BEA040181EA0600FFF7BB
:103E300031FF0090FFF72EFF80EA08098BEA0501A9
:103E400081EA0700FFF726FF0090FFF723FF80EAD3
:103E5000080A84EA0500FFF71DFF80EA0900995C63
:103E60004840985485EA0600FFF714FF80EA0A00EC
:103E7000511C595C4840511C585486EA0700FFF712
:103E800009FF80EA0900911C595C4840911C585474
:103E900087EA0400FFF7FEFE80EA0A00D11C595CA5
:103EA0004840D11C5854101DC2B2102AABDBBDE8EB
:103EB000F88F30B50A46437F784CE35C1478634052
:103EC0000478634003704378847F744D2C5D6340B5
:103ED00043708378C47F2C5D63408370C378047F14
:103EE0002C5D6340C3701378DB0903EBC30303EB62
:103EF0004303147883EA4403137004211BE0435CFA
:103F00000C1F045D634043544B1CC35CCC1E045D1A
:103F100063404C1C03558B1CC35C8C1E045D6340CA
:103F20008C1C0355CB1CC35C4C1E045D6340CC1C35
:103F300003550B1DD9B21029E1DB037C047B574DDF
:103F40002C5D63400374437C447B2C5D634043746D
:103F5000837C847B2C5D63408374C37CC47B2C5D39
:103F60006340C37414211BE0435C0C1F045D634079
:103F700043544B1CC35CCC1E045D63404C1C035576
:103F80008B1CC35C8C1E045D63408C1C0355CB1CD6
:103F9000C35C4C1E045D6340CC1C03550B1DD9B2A1
:103FA0002029E1DB30BD30B50A461C211BE0435C13
:103FB0000C1F045D634043544B1CC35CCC1E045D6A
:103FC00063404C1C03558B1CC35C8C1E045D63401A
:103FD0008C1C0355CB1CC35C4C1E045D6340CC1C85
:103FE00003550B1FD9B21029E1DC037C047B2B4D58
:103FF0002C5D63400374437C447B2C5D63404374BD
:10400000837C847B2C5D63408374C37CC47B2C5D88
:104010006340C3740C211BE0435C0C1F045D6340D0
:1040200043544B1CC35CCC1E045D63404C1C0355C5
:104030008B1CC35C8C1E045D63408C1C0355CB1C25
:10404000C35C4C1E045D6340CC1C03550B1FD9B2EE
:104050000029E1DC137803F001030BB18D2300E0AC
:104060000023147883EA64031370437F0B4CE35CF2
:10407000147863400478634003704378847F074D6D
:104080002C5D634043708378C47F2C5D63408370F4
:10409000C378047F2C5D6340C37030BD5A7F000835
:1040A0005A80000878B505460E460120009000248D
:1040B00007E0315D05F14000015520380155601CD5
:1040C000C4B2202CF5D3082404E0694605F1400071
:1040D000FFF7EFFE601EC0B2041EF6D178BD0146A8
:1040E000002008E0002301F140021354203A135449
:1040F0000B54421CD0B22028F4D3704778B5044644
:104100000E46224604F120013046FFF7F4FD01255A
:10411000012000901BE03046FFF7C7FD3046FFF757
:10412000FDFD3046FFF72CFE05F0010028B104F13B
:1041300010013046FFF7D1FD07E069462046FFF742
:10414000B8FE21463046FFF7C8FD681CC5B20E2DEB
:10415000E1DB3046FFF7A9FD3046FFF7DFFD69469A
:104160002046FFF7A6FE21463046FFF7B6FD78BD94
:1041700078B504460D46224604F140012846FFF773
:10418000BAFD2846FFF7E3FD2846FFF79AFD0E2605
:104190008020009019E006F0010048B169462046F1
:1041A000FFF701FF04F110012846FFF796FD03E039
:1041B00021462846FFF791FD2846FFF71FFE2846B7
:1041C000FFF7C5FD2846FFF77CFD701EC0B2061E36
:1041D000E1D121462846FFF780FD78BD30B5CBB24E
:1041E00080EA0302D4B2FE4D35F8144084EA202060
:1041F00030BD30B5CBB280EA0302D4B2F94D55F8E8
:10420000244084EA102030BDF0B505460E4643F642
:10421000A327002405E0295D3846FFF7DFFF0746A6
:10422000641CB442F7D33846F0BDF0B505460E46DF
:1042300043F6A327002405E0295D3846FFF7D9FFA0
:104240000746641CB442F7D33846F0BD70B5044647
:104250000B25A088461BA01D81192A4602F0DEFA14
:10426000A11D4819314602F000FBA58070BD2DE963
:10427000F04F99B080460C4615462079C0F34210A5
:1042800010B919B0BDE8F08F2068C0F309200C28E0
:1042900000D1F6E72068C0F30920102800D8F0E725
:1042A00004F10C0B2068C0F30920A0F1100A4FEABA
:1042B0001A19002708F2064101A8FFF7F3FE0026AD
:1042C00005E00BEB070101A8A8471037761C4E4507
:1042D000F7D301A8FFF703FFAFF26B10854208D1B7
:1042E000217901F01F012068C1EB102161F3112039
:1042F000206000BFC5E710B50446A08848B1A0887B
:10430000401EA080A08820B1A288E11DA01D02F05F
:1043100085FA10BD2DE9F0470446A51DA0880C388C
:1043200086B205F10C082088801B87B205EB0709CF
:1043300032464146484602F071FA0C20A0802046E1
:10434000FFF7D9FF27806088401C6080BDE8F087B8
:10435000F0B505462C462E462078AA2800D0F0BDA0
:104360002068C0F3854000B1F9E72068C0F3092058
:10437000B0F5806F00DDF2E72068C0F309200C285B
:1043800005D92068C0F30920102800D2E7E70A21E8
:104390003046FFF739FFA16860F31F41A160206834
:1043A000C0F30920102808D32068C0F30920071F94
:1043B00039463046FFF739FFF05100BFCFE77CB5F3
:1043C00004460E4600208DF806008DF805008DF895
:1043D000040000250EE020788DF8040060788DF848
:1043E00005006A4680A101A802F054FA00987055B1
:1043F000A41C6D1C202DEEDB7CBD70B505460C4663
:10440000A61DAFF2932231462046FFF730FFA11DD3
:10441000284600F0CBFD2046FFF718FF70BD70B5B1
:1044200006460C46A51D2868C0F309212846FFF75B
:10443000FCFE20B921463046FFF7DFFF02E02046B0
:10444000FFF768FF70BD70B506460D46AC1D2078BD
:10445000AA281ED12068C0F38540D0B92068C0F3D7
:104460000920B0F5806F14DC2068800F88B960687F
:10447000000A70B90C212046FFF7C6FE48B9206833
:10448000C0F309200C2807D129463046FFF7B5FFB5
:1044900002E02846FFF72FFF70BD70B505460C46B9
:1044A000A61DA0880C2800D270BDA0880C2804D1BD
:1044B00021462846FFF7C7FF09E0A0883168C1F30D
:1044C0000921884203D121462846FFF7A8FF00BFF3
:1044D000EAE7F8B505460C461646A088B0F5806FA9
:1044E00006DAA188A01D4654A088401CA08016E0D2
:1044F00040F27F203D4B3EA23FA10090464803F092
:1045000035F841F27C214859495909680A6A002165
:104510009047A188A01D02F0A8F90020A080F8BD56
:1045200070B504460D461646324629462046FFF72A
:10453000D0FF29462046FFF7B0FF70BD70B5044696
:104540000D46002140F25E5001534FF48060A4F804
:104550005C052A4604F25C512046FFF7E1FF40F279
:104560005E50005BA8B10BE0B4F85C15481CA4F8E1
:104570005C0504F26250425C811F2046FFF7D0FFC9
:10458000B4F85C05B0F5806FEEDB002140F25E50C0
:10459000015370BD70472DE9F84F06468846914695
:1045A0001D46DDE90ABA4446B5F5806F02DD0020FC
:1045B000BDE8F88F96F8820980B9BAF1000F53D0A0
:1045C00040F25330154B0AA215A10090124802F098
:1045D000CDFF41F27C21885989593FE044E0000039
:1045E00008010020080300202578000062810008EF
:1045F0004552524F5200000025732025732C6C69E0
:104600006E652025643A20627566666572206F7655
:104610006572666C6F770000071D00205A810008E4
:1046200025732025732C6C696E652025643A204320
:10463000616E206E6F742073656E6420656E636FAB
:10464000646520646174612C206E6F2061766169FD
:104650006C61626C65206B657900000009680A6A0C
:10466000002190470020A3E715B1B9F1000F01D157
:104670000C2702E005F1100087B2BAF1000F0AD052
:104680002846E91705EB11710911A5EB0111C1F1DC
:10469000100139448FB2206820F0FF00AA3020605A
:1046A000206867F311202060206820F47C002060DF
:1046B0000C98216860F31C612160BBF1000F01D0F0
:1046C000012100E00021206861F35D702060206816
:1046D00020F040402060BAF1000F09D02846E917C9
:1046E00005EB11710911A5EB0111C1F1100100E0F9
:1046F0000021626861F304026260BAF1000F01D028
:10470000012100E00021606861F3471060602079BA
:1047100060600D98A16860F30F01A160208980B2EC
:10472000A060B9F1000F06D02DB12A46494608F124
:104730000C0002F073F8AFF23B62214606F25C50C7
:10474000FFF795FD4046FFF703FE384630E77CB59E
:1047500004460D464FF60171681A8D4231D004DCD3
:1047600045B1B5F57F4F68D117E001283DD0FE284F
:1047700063D14EE040F255203A4B3BA23CA1009061
:10478000414802F0F3FE41F27C21085909590968B9
:104790000A6A0021904701207CBD4FF41670314B0E
:1047A000AFF2B41239A10090374802F0DFFE41F2B7
:1047B0007C210859095909680A6A0021904700209C
:1047C000EAE740F25B20274BAFF2DC123CA10090FD
:1047D0002D4802F0CBFE41F27C21085909590968A5
:1047E0000A6A002190470020D6E740F25E201D4B68
:1047F000AFF204223EA10090234802F0B7FE41F23E
:104800007C210859095909680A6A0021904700204B
:10481000C2E740F26120134BAFF22C223FA100907F
:10482000194802F0A3FE41F27C2108590959096890
:104830000A6A002190470020AEE74FF41970094B37
:10484000AFF2542244A1CDE900050F4802F08EFEDC
:1048500041F27C210859095909680A6A00219047E8
:10486000002099E76C8100085354415455530000CF
:1048700025732025732C6C696E652025643A2053BE
:104880005543434553532E00071D00202573202513
:10489000732C6C696E652025643A2057726F6E67C1
:1048A00020656E636F6465204B65792C20416374CD
:1048B000697661746520616761696E2E0000000091
:1048C00025732025732C6C696E652025643A205071
:1048D0006C65617364206F627461696E20636F6ED2
:1048E00074726F6C20616E642072657472792E0030
:1048F00025732025732C6C696E652025643A204E43
:1049000065656420686967686572204C6576656CCA
:10491000206163636573732E0000000025732025FA
:10492000732C6C696E652025643A20436865636B5F
:1049300020796F75722048617264776172652063B7
:104940006F6E6E656374696F6E20616E6420726550
:104950007472792E0000000025732025732C6C6979
:104960006E652025643A20556E6B6F776E2041434B
:104970004B20636F64653A20307825780000000092
:10498000016070472DE9FF4106460C461746206836
:10499000C0F30920103802281ED82068C0F309206F
:1049A000A0F1100204F10C0103A801F037FFBDF8DB
:1049B0000C005121B04BB1A2CDE90010B1A1BD480E
:1049C00002F0D4FD3046FEF782F80546006800216B
:1049D000026A2846904718E0208980B22168C1F316
:1049E00004615622A44BCDE900210290B2A2B4A1E9
:1049F000B04802F0BBFD3046FEF769F80546006896
:104A00000021026A2846904700BFBDE8FF81F0B54B
:104A100087B004460D4616461F4665712079401C36
:104A200020710EB1304601E0AFF2A70003216422ED
:104A3000CDE90507CDE903210221201D0122CDE9A1
:104A40000020029113462068FDF7F9FF07B0F0BD82
:104A50002DE9FF4106460C4617462068C0F30920A1
:104A6000103802281ED82068C0F30920A0F11002D7
:104A700004F10C0103A801F0D1FEBDF80C003E21A9
:104A80009E4B7EA2CDE900109DA18A4802F06EFDEA
:104A90003046FEF71CF8054600680021026A2846E9
:104AA000904718E0208980B22168C1F30461422256
:104AB000924BCDE9002102907FA281A17D4802F0B6
:104AC00055FD3046FEF703F8054600680021026AEE
:104AD0002846904700BFBDE8FF81F0B589B0044685
:104AE0000D4616461F4608950EB1304601E0AFF25E
:104AF0009F0001210022CDE90507CDE903210846E9
:104B000008A90522CDE90021029001231A460221BD
:104B10002068FDF794FF09B0F0BD30B587B00446BA
:104B20000D4600200122CDE90302059006901120D8
:104B30000321CDE900150290134600212068FDF7FE
:104B40007EFF07B030BD10B5C0B00446684621688E
:104B5000FEF70FFE782269461EA801F05FFE1022C4
:104B60000DF17E013CA801F059FE9DED3C0ADDED02
:104B70003D0A9DED3E1ADDED3F1A40B010BD30B547
:104B8000BDB005460C4601A82168FEF7F2FD78226B
:104B900001A91FA801F042FE19220DF1B701284614
:104BA00001F03CFE3DB030BD30B5BDB005460C4611
:104BB00001A82168FEF7DDFD782201A91FA801F0F8
:104BC0002DFE0D220DF19E01284601F027FE3DB07D
:104BD00030BD10B5C0B0044601A82168FEF7C9FD7C
:104BE000782201A91FA801F019FEDDF892003D907E
:104BF000DDF896003E90DDF89A003F909DED3D0A6D
:104C0000DDED3E0A9DED3F1A40B010BD10B5C0B0BD
:104C1000044601A82168FEF7ACFD782201A91FA86F
:104C200001F0FCFDDDF8AB003D90DDF8AF003E90FB
:104C3000DDF8B3003F909DED3D0ADDED3E0A9DEDB0
:104C40003F1A40B010BD30B5BDB004460D4601A8B6
:104C50002968FEF78EFD782201A91FA801F0DEFD6C
:104C600034982060BDF8D400A0803DB030BD01462E
:104C700008687047016070478881000853544154A8
:104C80005553000025732025732C6C696E65202513
:104C9000643A207461736B2072756E6E696E672062
:104CA0007375636365737366756C6C792C25640A20
:104CB00000000000071D00204552524F5200000026
:104CC00025732025732C6C696E652025643A20417C
:104CD000434B20697320657863657074696F6E2C2F
:104CE00073656573696F6E2069642025642C736534
:104CF0007175656E63652025640A00007C8100087B
:104D000025732025732C6C696E652025643A204339
:104D1000616C6C206261636B2C307825780A00002E
:104D200070B505460C4624B1214605A002F00EFCE4
:104D300003E0044902A002F009FC70BD70470000C6
:104D400025730000071D002030B502460B466BB1ED
:104D50001046D41702EB14742411A2EB0414C4F10E
:104D6000100502F110042C44A1B202E002F110007F
:104D700081B2084630BDF8B504460D462F46396865
:104D8000C1F3092241F27C210859095909688B684D
:104D90002946984706467EB92B20F54BF5A2F7A188
:104DA0000090FE4802F0E2FB41F27C2108590959CB
:104DB00009680A6A00219047701C78B92D20EC4BD5
:104DC000F7A2F9A10090F54802F0D0FB41F27C2156
:104DD0000859095909680A6A00219047F8BD70B559
:104DE0000446012595E005EB450104F6842010F802
:104DF0003100C0F3401000287ED041F27C221059CF
:104E00001259126851688847064605EB450104F6B9
:104E1000842000EBC1004169711A05EB450204F6DC
:104E2000842050F83200B1EB104F70D941F27C224F
:104E30001059125912681169884705EB450104F6AB
:104E4000842030F83100C0F3C420002844DD05EB95
:104E5000450104F6842030F83100C0F3841105EBDD
:104E6000450204F6842030F83200C0F3C4208142A9
:104E700009DB05EB450204F6842000EBC201204665
:104E800000F0B7FF3CE005EB450204F6842000EBA0
:104E9000C200406841682046FFF76DFF05EB450101
:104EA00004F6842000EBC100466105EB450104F6E1
:104EB000842030F831008109491C05EB450204F6D5
:104EC000842050F8320061F38A1005EB450204F6A5
:104ED000842141F8320013E005EB450204F68420FA
:104EE00000EBC200406841682046FFF744FF05EB35
:104EF000450104F6842000E009E000EBC1004661B2
:104F000041F27C2210591259126851698847681C75
:104F1000C5B2202DFFF467AF70BD70B5ADF5806DE3
:104F2000044641F27C210859095909684FF480620E
:104F3000CB68694698470646002505E01DF8051030
:104F40002046FFF7FBFA6D1CB542F7DB0DF5806DCF
:104F500070BD704719B1012280F8752002E000226F
:104F600080F87520704713B588B0044600200122F0
:104F7000CDE9030205900690042009A9002203460A
:104F8000CDE900210290012200212046FDF757FDC6
:104F90000AB010BD70B504460D4604F662112846ED
:104FA000FFF70DFA012184F8821970BD2DE9FC414B
:104FB00004460D4600272868C0F3407000286BD0D7
:104FC0002868C0F3046001285DDD2868C0F3046030
:104FD000202858DA2868C0F3046000EB400104F68A
:104FE000842010F83100C0F3401000284BD041F26B
:104FF0007C22105912591268116988472868C0F339
:10500000046000EB400104F6842000EBC10040681E
:1050100046683068C0F304602968C1F304618842BF
:1050200032D1308980B2298989B288422CD128684E
:10503000C0F3046000EB400104F6842000EBC100E3
:1050400087682868C0F3046000EB400204F68420FF
:1050500000EBC201204600F0CCFE41F27C22105948
:105060001259126851698847002FBFD02868C0F3D1
:10507000046000EB400104F6842000EBC1002946E7
:10508000C2682046B847EAE041F27C221059125922
:10509000126851698847E2E02868C0F3046010B1E3
:1050A000012806D104E029462046FEF728FCD5E079
:1050B00000BF2868C0F304605821424B2DA2CDE9FF
:1050C000001041A1354802F051FA41F27C21085903
:1050D000095909680A6A002190472868C0F30460EA
:1050E000401E04F6845111F83000C0F3411001282D
:1050F00022D02868C0F30460401E11F83000C0F3CD
:105100004110D0B92868C0F30460012810DD286878
:10511000C0F30460401E51F8300020F060002030E1
:105120002968C1F30461491E04F6845242F8310033
:1051300029462046FEF7E3FB8FE02868C0F30460B1
:10514000401E04F6845111F83000C0F341100228CB
:1051500064D141F27C2210591259126811698847B2
:105160002868C0F30460401E04F6845138E0000053
:10517000C481000853544154555300002573202521
:10518000732C6C696E652025643A20506F72742010
:105190006E6F742073656E6400000000071D0020B0
:1051A0004552524F5200000025732025732C6C6924
:1051B0006E652025643A20506F727420636C6F73A3
:1051C000656400009E81000825732025732C6C699E
:1051D0006E652025643A2041434B20256400000081
:1051E00001EBC00040684668308980B2298989B2E5
:1051F000884214D12868C0F30460401E04F684522B
:1052000002EBC000406841682046FFF7B4FD41F260
:105210007C22105912591268516988471DE028688C
:10522000C0F30460401E04F6845151F8300020F0B1
:10523000600120312868C0F30460401E04F68452E7
:1052400042F8301041F27C2210591259126851690B
:10525000884729462046FEF752FB00BF00BFBDE845
:10526000FC812DE9FF4104460E46002700257068A9
:10527000B0F57C7F17D34FF48E717068F54BAFF2A9
:10528000E002CDE90010F4A1FE4802F06FF941F20E
:105290007C210859095909680A6A00219047681E4B
:1052A00004B0BDE8F081307800F0030020B101289F
:1052B0007ED002287DD12AE141F27C221059125978
:1052C0001268116988473278C2F38001B28890B2BF
:1052D000FFF73AFD804642460021204600F098FD47
:1052E0000546DDB941F27C22105912591268516904
:1052F00088474FF49570D74BAFF25C12E2A1009053
:10530000E04802F033F941F27C2108590959096853
:105310000A6A002190474FF0FF30C1E7B4F85A0500
:10532000297801F01F013278C2F380020023CDE911
:105330000032CDE90210B08883B2B2686868416873
:105340002046FFF728F90746FFB940F23110C14B5C
:10535000AFF2B412D9A10090CA4802F007F941F2A5
:105360007C210859095909680A6A00219047294691
:10537000204600F03EFD41F27C221059125912687D
:10538000516988474FF0FF308AE7686841682046D6
:10539000FFF7F1FCB4F85A05401CA4F85A05294659
:1053A000204600F026FD41F27C221059125901E0FE
:1053B00004E0C5E1126851698847D8E141F27C22D6
:1053C000105912591268116988473278C2F3800166
:1053D000B28890B2FFF7B8FC8046424601212046D1
:1053E00000F016FD0546DDB941F27C221059125934
:1053F00012685169884740F24510964BAFF260221F
:10540000B6A100909F4802F0B1F841F27C21085902
:10541000095909680A6A002190474FF0FF303FE7B9
:10542000B4F85A052969884204D1B4F85A05401CD9
:10543000A4F85A05B4F85A15287800F01F003278FD
:10544000C2F380020023CDE90032CDE90201B08829
:1054500083B2B268686841682046FFF79CF8074647
:10546000FFB94FF4A7707B4BAFF2CC2293A1009011
:10547000844802F07BF841F27C21085909590968F7
:105480000A6A002190472946204600F0B2FC41F20A
:105490007C22105912591268516988474FF0FF3029
:1054A000FEE6B4F85A052861B4F85A05401CA4F881
:1054B0005A05F068A8603069E8607088142801DD3A
:1054C000708800E01420296860F31F41296041F2D0
:1054D0007C221059125912685168884768612868FF
:1054E00020F4F86040302860286820F4784000F507
:1054F00000602860686841682046FFF73CFC41F284
:105500007C22105912591268516988472FE141F2E3
:105510007C22105912591268116988473278C2F3F7
:105520008001B28890B2FFF70FFC804642462021EE
:10553000204600F06DFC0546DDB941F27C22105991
:10554000125912685169884740F26710414BAFF217
:10555000B0324DA100904B4802F008F841F27C2196
:105560000859095909680A6A002190474FF0FF302D
:1055700096E6B4F85A052969884204D1B4F85A0568
:10558000401CA4F85A05B4F85A05297801F01F0107
:105590003278C2F380020023CDE90032CDE9021057
:1055A000B08883B2B268686841682046FEF7F3FFAE
:1055B0000746FFB940F27310264BAFF21C4254A1CC
:1055C0000090304801F0D2FF41F27C21085909597E
:1055D00009680A6A002190472946204600F009FC24
:1055E00041F27C22105912591268516988474FF0D4
:1055F000FF3055E6B4F85A052861B4F85A05401C46
:10560000A4F85A05F068A8603069E860708814282A
:1056100001DD708800E01420296860F31F412960D3
:1056200041F27C221059125912685168884768610A
:10563000286820F4F860403028603078C108286875
:1056400061F3CF202860686841682046FFF793FB2C
:105650006EE00000A981000825732025732C6C6979
:105660006E652025643A204552524F522C6C656E6F
:105670006774683D2564206973206F76657273696D
:105680007A650A00071D002025732025732C6C699C
:105690006E652025643A204552524F522C7468653D
:1056A0007265206973206E6F7420656E6F75676810
:1056B000206D656D6F72790A00000000257320254A
:1056C000732C6C696E652025643A20656E6372796F
:1056D0007074204552524F520A0000002573202555
:1056E000732C6C696E652025643A204552524F52E6
:1056F0002C746865726520617265206E6F74206518
:105700006E6F756768206D656D6F72790A000000B5
:1057100025732025732C6C696E652025643A2065FD
:105720006E6372797074204552524F52000000002F
:1057300041F27C221059125912685169884716E0CB
:10574000307800F0030040F28511604BAFF2B052A8
:10575000CDE900105EA1664801F008FF41F27C210E
:105760000859095909680A6A0021904700BF00BF1B
:10577000002095E52DE9FF4104460D46002700264F
:105780006868B0F57C7F16D3EE216868594BAFF29C
:10579000F052CDE9001058A1554801F0E7FE41F262
:1057A0007C210859095909680A6A00219047701E2E
:1057B00004B0BDE8F081287808B90020F8E728781F
:1057C000002876DD2878202873DA41F27C221059EF
:1057D00012591268116988472A88110AAA8890B25A
:1057E000FFF7B2FA804629784246204600F0AFFB28
:1057F0000646D6B9FE203F4BAFF25C6248A100904E
:105800003B4801F0B3FE41F27C210859095909686F
:105810000A6A0021904741F27C22105912591268FD
:10582000516988474FF0FF30C2E7698828782A8895
:10583000120A0123CDE90032CDE90201A88883B222
:10584000AA68706841682046FEF7A5FE0746E7B9DA
:1058500040F20710274BAFF2B862AFF2A0110090F0
:10586000234801F083FE41F27C2108590959096857
:105870000A6A0021904741F27C221059125912689D
:10588000516988474FF0FF3092E7706841682046C1
:10589000FFF771FA41F27C221059125912685169CE
:1058A0008847306820F060004030306000207FE79B
:1058B000FFE74FF0FF307BE710B50446204600F0CD
:1058C00053F8204600F09BF810BD0000A9810008A5
:1058D00025732025732C6C696E652025643A20554C
:1058E0006E6B6E6F776E206D6F64653A25640A008B
:1058F000071D0020B781000825732025732C6C69D3
:105900006E652025643A206C656E6774683D256479
:10591000206973206F76657273697A650A000000EA
:1059200025732025732C6C696E652025643A2074DC
:1059300068657265206973206E6F7420656E6F757F
:105940006768206D656D6F72790A000000B9704755
:10595000017811B101781F2900D1F8E7016821F41D
:105960007F41016000BFF2E7D0F8842922F0FF02F6
:10597000C0F88429D0F8842922F47F4202F580728D
:10598000C0F8842900F67C6240F688131A50B0F8FB
:10599000842992B2C0F88429012113E000F6841210
:1059A00052F8312061F3070200F6841343F83120E6
:1059B0001A4652F8312022F47F4300F6841242F84E
:1059C0003130491C1F29E9D3D0F87C2A22F0FF028C
:1059D0001F32C0F87C2AD0F87C2A22F47F4202F5DC
:1059E0008072C0F87C2A00F67C6202F58063C0F801
:1059F000803AB0F87C2A93B2C0F87C3A704710B570
:105A00000146002022E000EB400301F6842252F818
:105A1000332060F3040200EB400401F6842343F8D2
:105A2000342000EB400301F6842252F8332022F0A8
:105A3000200300EB400401F6842242F834300023B6
:105A400000EB400402EBC4025360401C2028DAD370
:105A5000002017E0421C01F6845353F8303062F303
:105A6000040301F6845242F8303052F8302022F01C
:105A7000600301F6845242F83030002302EBC0028A
:105A80005360401C1F28E5D310BD2DE9F04F8BB0AB
:105A900005460F464FF0000A0026B146F74903C9F4
:105AA000CDE90101B34600200090B7F57C7F02DA12
:105AB000B7F5806F03DD00200BB0BDE8F08F002448
:105AC00019E005F6841030F83400C0F307200128EF
:105AD0000FD105F6841050F834000AEB104A05F691
